:020000040000FA
:1000000002005675A7308F848E852202002E759FC0
:10001000F1E4FF0FBF20FC75A73075991FE4F5A729
:0A002000539DFC439D4C439B80223E
:10002B00020240C0E0C0D075A7005388DF43884070
:10003B00E58BD3940A4006758B00758D00D0D0D01C
:06004B00E03275888022FE
:1000530002021A787FE4F6D8FD75811002009D0232
:1000630001D1E493A3F8E493A34003F68001F208DB
:10007300DFF48029E493A3F85407240CC8C333C4E2
:10008300540F4420C8834004F456800146F6DFE44D
:10009300800B0102040810204080900247E47E0197
:1000A3009360BCA3FF543F30E509541FFEE493A3C0
:1000B30060010ECF54C025E060A840B8E493A3FAD2
:1000C300E493A3F8E493A3C8C582C8CAC583CAF05E
:1000D300A3C8C582C8CAC583CADFE9DEE780BE8577
:1000E300A7101201F212018A1201C41202061201B0
:1000F300E812012812000E12023212004D120239C8
:100103001202241201DD12019A120141120154124A
:1001130002101201FC1201791201B712022B120113
:10012300AA8510A72275BB0D75DF1F75BC1875B99D
:100133008075A73043A140E4F5A743E88022E5C8D2
:10014300540453C8FB75CBFF75CAEC43C80442C8BB
:100153002275A710E59854045398FB75A3F875A26C
:1001630007429822EF8DF0A4A8F0CF8CF0A428CEFC
:100173008DF0A42EFE22C2DE75D909759C0175F996
:100183000575FAFFD2DE227580D775A40275F1FAE0
:1001930075D40575FDD722AF885388AFEF5440FE61
:1001A300EF54104E42882275E60875A8A275A71071
:1001B30075F2022253F77F75DACA75FBFE75FC7F71
:1001C300227590F575F27F75D58075EDF5221200D5
:1001D300E27FFF7E0712000380FEE4F5A7F5A9E5A1
:1001E300A930E7FB22E4F5A775E34075E22122E499
:1001F300F5A77597DE7597AD22E4F5A77589514389
:1002030088102275A720759C0875F49E22E5C054BA
:100213000453C0FB42C022C0D0A2B3B392B3D0D028
:100223003275A71075EF082253F77F75EA0122751F
:10023300A73075918022E4F5A775D1802275A700B8
:0802430043E81032010A00003B
:00000001FF
