:020000040000FA
:0A00000002014775A71075EF0822F2
:10000B00020252759FF1E4FF0FBF20FC75A73075FC
:0F001B00991FE4F5A7539DFC439D4C439B802206
:10002B0002048C75B38275B24375BB0D75DF3F75DA
:10003B00BC1875B98A75A73043B50143A140E4F5E7
:05004B00A743E880223C
:100053000202A3C3E49FFF74109EFE900004F0A36A
:10006300EFF0900009E02FF0900008E03EF0E0FE92
:10007300A3E0FFD39432EE64809480400B90000899
:10008300E4F0A37432F08015C3EF94CEEE64809451
:100093007F500A90000874FFF0A374CEF090000C18
:1000A300E0FEA3E0FF900004E0FCA3E0FDC39FFF9C
:1000B300EC9E900002F0A3EFF090000CECF0A3EDA7
:1000C300F0900008E0FEA3E0FF7C017D0112033302
:1000D300AA06AB07900004E0FEA3E0FF1C7D031219
:1000E3000333EF2BFDEE3AFC900003E07F00C45492
:1000F300F0FEEF2DFFEC3E900000F0A3EFF0900038
:1001030000E0FEA3E07802CEA2E713CE13D8F8FFF7
:10011300900000EEF0A3EFF0C394FFEE6480948FA1
:10012300400A900000740FF0A374FFF0C390000026
:10013300E0648094805004E4F0A3F0900000E0FEBB
:10014300A3E0FF22787FE4F6D8FD75810A02018ED1
:10015300020493E493A3F8E493A34003F68001F22B
:1001630008DFF48029E493A3F85407240CC8C333AD
:10017300C4540F4420C8834004F456800146F6DF7C
:10018300E4800B0102040810204080900361E47EA8
:10019300019360BCA3FF543F30E509541FFEE49371
:1001A300A360010ECF54C025E060A840B8E493A338
:1001B300FAE493A3F8E493A3C8C582C8CAC583CA63
:1001C300F0A3C8C582C8CAC583CADFE9DEE780BE1B
:1001D300E4F508E50875F008A42418F582E4340072
:1001E300F583E06401705EE50875F008A42414F556
:1001F30082E43400F583E0FEA3E0FFE50875F00830
:10020300A42416F582E43400F583E475F0011203A7
:1002130045FCEFB5F02FEEB5042BE50875F008A407
:100223002419F582E43400F583A3E0FAA3E0F9127C
:10023300035BE50875F008A42416F582E43400F5A1
:1002430083E4F0A3F00508E508C39402408522C0C7
:10025300E0C0F0C083C082C0D075D000C000C00130
:10026300C002C003C004C005C006C00775A7005381
:1002730088DF4388401201D3E58BD3940A40067587
:100283008B00758D00D007D006D005D004D003D0E5
:1002930002D001D000D0D0D082D083D0F0D0E032D1
:1002A300C0E0C0F0C083C082C0D075D000C000C021
:1002B30001C002C003C004C005C006C00775A70083
:1002C30053E8DFAFBDAEBE12037AE4F5BEF5BDD091
:1002D30007D006D005D004D003D002D001D000D07F
:1002E300D0D082D083D0F0D0E03285A70A12044F59
:1002F3001203DC12041612046312044512002E12B8
:10030300000E12047E1204981204851200031204D4
:100313002F1203EC1203A51203B812046D12045931
:100323001203CB1204091204771203FC850AA722D5
:10033300EF8DF0A4A8F0CF8CF0A428CE8DF0A42EDE
:10034300FE22A3F8E0C5F025F0F0E58215827002E5
:100353001583E0C838F0E8228A838982E473420077
:100363000C00005000140005000001FF043A000ACD
:10037300000001FF039100EEC4F854F0C868FEEFDB
:10038300C4540F48FF90000AEEF0A3EFF022900050
:100393000AE0FEA3E0FF120056900006EEF0A3EF82
:1003A300F022E5C8540453C8FB75CBFF75CAEC4370
:1003B300C80442C82275A710E59854045398FB75E6
:1003C300A3F875A207429822C2DE75D909759C016C
:1003D30075F90575FAFFD2DE227580D775A402750B
:1003E300F1FA75D40575FDD722AF885388AFEF5462
:1003F30040FEEF54104E42882275E60875A8A27598
:10040300A71075F2022253F77F75DACA75FBFE75E2
:10041300FC7F227590F575F27F75D58075EDF52219
:10042300AD07AC0675A7308C858D8422E4F5A7F55E
:10043300A9E5A930E7FB22900006E0FEA3E0FF0256
:100443000423E4F5A775E34075E22122E4F5A775DB
:1004530097DE7597AD22E4F5A7758951438810227D
:1004630075A720759C0875F49E22E5C0540453C0FB
:10047300FB42C02253F77F75EA012275A7307591BD
:100483008022E4F5A775D1802275A70053C83F32B7
:090493001202ED80FE7588802242
:00000001FF
