:020000040000FA
:1000000002007385A70912005112009512002512F3
:10001000009F1200A612007F12008A1200661200D2
:10002000418509A722759FF1E4FF0FBF20FC75A74A
:100030003075991FE4F5A7539DFC439D4C439B806D
:100040002275E62075A71075EE20E4F5A775A88047
:1000500022E4F5A775A40B75F1FB75D404221200F8
:100060000380FE0200AA53F77F75DACA75FBFE759E
:10007000FC7F22787FE4F6D8FD75810902005EE4FA
:10008000F5A7F5A9E5A930E7FB22C2DE75D9087509
:100090009C01D2DE2275E34075E11875E2012275FC
:0B00A000A71075EF082275C110223276
:00000001FF
