:020000040000FA
:1000000002000E75A7308F848E85220200D7787F7C
:10001000E4F6D8FD758110020055020189E493A32E
:10002000F8E493A34003F68001F208DFF48029E4AA
:1000300093A3F85407240CC8C333C4540F4420C8F6
:10004000834004F456800146F6DFE4800B0102048D
:1000500008102040809001F2E47E019360BCA3FF71
:10006000543F30E509541FFEE493A360010ECF54C2
:10007000C025E060A840B8E493A3FAE493A3F8E4B1
:1000800093A3C8C582C8CAC583CAF0A3C8C582C81D
:10009000CAC583CADFE9DEE780BE85A7101201AAC0
:1000A00012014C1201BE1201A01200FA1201E0125C
:1000B00001EE1201E71201D212019512016C120138
:1000C000161201C81201B412013B12017C1201D9AF
:1000D00012015C8510A722C0E0C0D075A70053882C
:1000E000DF438840A2B3B392B3E58BD3940A4005B3
:1000F000A2B3B392B3D0D0D0E032759FF1E4FF0F3A
:10010000BF20FC75A73075991FE4F5A7539DFC43EC
:100110009D4C439B802275A710E59854045398FB8F
:1001200075A3F875A207429822EF8DF0A4A8F0CF2E
:100130008CF0A428CE8DF0A42EFE22C2DE75D90943
:10014000759C0175F90575FAFFD2DE227580D775A9
:10015000A40275F1FA75D40575FDD72275A710753F
:10016000EE2075ED04E4F5A775A88222AF885388C8
:10017000AFEF5440FEEF54104E42882253F77F7584
:10018000DACA75FBFE75FC7F2212009A7FFF7E079C
:1001900012000380FEE4F5A7F5A9E5A930E7FB22EC
:1001A000E4F5A775E34075E22122E4F5A77597DE33
:1001B0007597AD22E4F5A77589514388102275A77C
:1001C00020759C0875F49E22E5C0540453C0FB4280
:1001D000C02275A71075EF082253F77F75EA012238
:1001E00075A73075918022E4F5A775D180227588B6
:0601F0008022010A00005C
:00000001FF
