:020000040000FA
:1000000002017A75A7308F848E852202002E759F9B
:10001000F1E4FF0FBF20FC75A73075991FE4F5A729
:10002000539DFC439D4C439B80222202039FC0E0D2
:10003000C0D075A7005388DF438840E58BD3940A6E
:100040004006758B00758D00D0D0D0E03275888069
:0200500022226A
:10005300020303E709F608DFFA8046E709F208DF3F
:10006300FA803E88828C83E709F0A3DFFA8032E3CB
:1000730009F608DFFA8078E309F208DFFA8070886E
:10008300828C83E309F0A3DFFA806489828A83E0A8
:10009300A3F608DFFA805889828A83E0A3F208DF97
:1000A300FA804C80D280FA80C680D4806980F28046
:1000B30033801080A680EA809A80A880DA80E2806C
:1000C300CA803389828A83ECFAE493A3C8C582C8C1
:1000D300CCC583CCF0A3C8C582C8CCC583CCDFE92B
:1000E300DEE7800D89828A83E493A3F608DFF9ECC7
:1000F300FAA9F0EDFB2289828A83ECFAE0A3C8C552
:1001030082C8CCC583CCF0A3C8C582C8CCC583CC78
:10011300DFEADEE880DB89828A83E493A3F208DFE7
:10012300F980CC88F0EF60010E4E60C388F0ED24B7
:1001330002B4040050B9F582EB2402B4040050AFBA
:1001430023234582239000A673EF8DF0A4A8F0CF5C
:100153008CF0A428CE8DF0A42EFE22A3F8E0C5F0E7
:1001630025F0F0E582158270021583E0C838F0E8C7
:10017300228A838982E473787FE4F6D8FD7581113E
:100183000201C102033AE493A3F8E493A34003F604
:100193008001F208DFF48029E493A3F85407240CC8
:1001A300C8C333C4540F4420C8834004F4568001A9
:1001B30046F6DFE4800B0102040810204080900221
:1001C3004CE47E019360BCA3FF543F30E509541F08
:1001D300FEE493A360010ECF54C025E060A840B8AD
:1001E300E493A3FAE493A3F8E493A3C8C582C8CA2B
:1001F300C583CAF0A3C8C582C8CAC583CADFE9DEFE
:10020300E780BE85A71112035B1202E312032D12CE
:10021300036F12035112029012000E120391120087
:100223004D1203981203831203461202F31202AC17
:100233001202BF1203791203651202D212032012B3
:10024300038A1203138511A722010A00603C0000F0
:1002530000010000005100000000000A0000002A15
:100263000000000000010000005100000000000A2F
:100273000000002A000000000001000000510000FF
:100283000000000A0000002A000000000075B3020D
:1002930075BB0D75DF1F75BC1875B98075A7304325
:1002A300A140E4F5A743E88022E5C8540453C8FB02
:1002B30075CBFF75CAEC43C80442C82275A710E585
:1002C3009854045398FB75A3F875A207429822C269
:1002D300DE75D909759C0175F90575FAFFD2DE2221
:1002E3007580D775A40275F1FA75D40575FDD7220B
:1002F300AF885388AFEF5440FEEF54104E4288222C
:10030300C0D075A70053E8DFA2B3B392B3D0D03205
:1003130075E60875A8A275A71075F2022253F77F38
:1003230075DACA75FBFE75FC7F227590F575F27F51
:1003330075D58075EDF5221202067FFF7E07120048
:100343000380FEE4F5A7F5A9E5A930E7FB22E4F570
:10035300A775E34075E22122E4F5A77597DE75974B
:10036300AD22E4F5A77589514388102275A720753E
:100373009C0875F49E22E5C0540453C0FB42C0227E
:1003830075A71075EF082253F77F75EA012275A749
:100393003075918022E4F5A775D1802275A70053AB
:0303A300C83F321E
:00000001FF
