:020000040000FA
:0A00000002014875A71075EF0822F1
:10000B000202E6759FF1E4FF0FBF20FC75A7307568
:0F001B00991FE4F5A7539DFC439D0C439B802246
:10002B000204DE42000E00005800180027000001F9
:10003B00FF03270002000001FF04AA0005000001D6
:10004B00FF03F50075888022020253C374A09FFF43
:10005B00740F9EFE900004F0A3EFF0900009E02FC8
:10006B00F0900008E03EF0E0FEA3E0FFD39432EE08
:10007B0064809480400B900008E4F0A37432F0800D
:10008B0015C3EF94CEEE6480947F500A90000874F1
:10009B00FFF0A374CEF090000EE0FEA3E0FF900003
:1000AB0004E0FCA3E0FDC39FFFEC9E900002F0A3D5
:1000BB00EFF090000EECF0A3EDF0900008E0FEA343
:1000CB00E0FF7C017D01120361AA06AB07900004DF
:1000DB00E0FEA3E0FF1C7D03120361EF2BFDEE3A64
:1000EB00FC900003E07F00C454F0FEEF2DFFEC3ECC
:1000FB00900000F0A3EFF0900000E0FEA3E0780288
:10010B00CEA2E713CE13D8F8FF900000EEF0A3EFCA
:10011B00F0C394FFEE6480948F400A900000740F3C
:10012B00F0A374FFF0C3900000E06480948050044F
:10013B00E4F0A3F0900000E0FEA3E0FF22787FE460
:10014B00F6D8FD75810A02018F0204E5E493A3F84A
:10015B00E493A34003F68001F208DFF48029E493D3
:10016B00A3F85407240CC8C333C4540F4420C883CA
:10017B004004F456800146F6DFE4800B01020408CC
:10018B001020408090002EE47E019360BCA3FF54AE
:10019B003F30E509541FFEE493A360010ECF54C01A
:1001AB0025E060A840B8E493A3FAE493A3F8E493A2
:1001BB00A3C8C582C8CAC583CAF0A3C8C582C8CAAA
:1001CB00C583CADFE9DEE780BEE4F508E50875F014
:1001DB0008A4241CF582E43400F583E06401705E0E
:1001EB00E50875F008A42418F582E43400F583E0E3
:1001FB00FEA3E0FFE50875F008A4241AF582E434A9
:10020B0000F583E475F001120373FCEFB5F02FEEEC
:10021B00B5042BE50875F008A4241DF582E4340021
:10022B00F583A3E0FAA3E0F9120389E50875F0085A
:10023B00A4241AF582E43400F583E4F0A3F0050856
:10024B00E508C39403408522C0E0C0F0C083C082A0
:10025B00C0D075D000C000C001C002C003C004C034
:10026B0005C006C00775A70053E8DFAFBDAEBE12D1
:10027B0003DEE4F5BEF5BDD007D006D005D004D023
:10028B0003D002D001D000D0D0D082D083D0F0D018
:10029B00E03285A70A1204B512042F120486120449
:1002AB00EA1204BF12045F12038F12000E1204D065
:1002BB0012004F1204D712000312049F12043F12B4
:1002CB00040912041C12044F1204791203C71203FF
:1002DB00AE1204C912046C850AA722C0E0C0F0C09C
:1002EB0083C082C0D075D000C000C001C002C00363
:1002FB00C004C005C006C00775A7005388DF1201F4
:10030B00D4D007D006D005D004D003D002D001D072
:10031B0000D0D0D082D083D0F0D0E032E4F5A75318
:10032B0088BFAF8DEF900016F0A3E4F0AF8BE02FFA
:10033B00F0900016E03400F0E0FEA3E0FFD3940A47
:10034B00EE9400400DE4F58BF58D90000AEEF0A3D2
:10035B00EFF043884022EF8DF0A4A8F0CF8CF0A4EF
:10036B0028CE8DF0A42EFE22A3F8E0C5F025F0F0E8
:10037B00E582158270021583E0C838F0E8228A8383
:10038B008982E47375B38275B24375BB0D75BC1866
:10039B0075B98A75A73043B50143A140E4F5A7436E
:1003AB00E8802253F77F75DA4A75FBFF75FC034330
:1003BB00F78075FBFF75FC0353F77F22C2DE75D9FF
:1003CB0008759C8175F9E875FA0353F7F843F70341
:1003DB00D2DE22EEC4F854F0C868FEEFC4540F48C6
:1003EB00FF90000CEEF0A3EFF02290000CE0FEA3C8
:1003FB00E0FF120056900006EEF0A3EFF022E5C8E6
:10040B00540453C8FB75CBFC75CA0343C80442C8DC
:10041B002275A710E59854045398FB75A3F875A2A1
:10042B00074298227580CF75A40A75F1FA75D40529
:10043B0075FDC722AF885388AFEF5440FEEF5410C1
:10044B004E428822E5C0540453C0FB75D3FC75D2D1
:10045B000342C022E4F5A775E34075E10875E2217C
:10046B002275E60875A8A275A71075F20222E4F5AD
:10047B00A7758E01758951438810227590F475F21A
:10048B007F75D58075EDF522AD07AC0675A7308C61
:10049B00858D8422E4F5A7F5A9E5A930E7FB229029
:1004AB000006E0FEA3E0FF020493E4F5A77597DED8
:1004BB007597AD2275A720759C0875F49E2253F78E
:1004CB007F75EA012275A73075918022E4F5A77537
:1004DB00D1802275A70053C83F3212029D80FE7552
:0304EB00A6202226
:00000001FF
