:020000040000FA
:1000000002005675A7308F848E852202002E759FC0
:10001000F1E4FF0FBF20FC75A73075991FE4F5A729
:0A002000539DFC439D4C439B80223E
:10002B00020249C0E0C0D075A7005388DF43884067
:10003B00E58BD3940A4006758B00758D00D0D0D01C
:06004B00E03275888022FE
:100053000201AD787FE4F6D8FD75811002009D02A0
:1000630001E4E493A3F8E493A34003F68001F208C8
:10007300DFF48029E493A3F85407240CC8C333C4E2
:10008300540F4420C8834004F456800146F6DFE44D
:10009300800B0102040810204080900250E47E018E
:1000A3009360BCA3FF543F30E509541FFEE493A3C0
:1000B30060010ECF54C025E060A840B8E493A3FAD2
:1000C300E493A3F8E493A3C8C582C8CAC583CAF05E
:1000D300A3C8C582C8CAC583CADFE9DEE780BE8577
:1000E300A71012020512018D1201D7120219120173
:1000F300FB12012812000E12023B12004D120242A3
:1001030012022D1201F012019D1201441201571225
:10011300022312020F12017C1201CA1202341201CD
:10012300BD8510A72275B30275BB0D75DF1F75BCA6
:100133001875B98075A73043A140E4F5A743E8805B
:1001430022E5C8540453C8FB75CBFF75CAEC43C8FA
:100153000442C82275A710E59854045398FB75A36D
:10016300F875A207429822EF8DF0A4A8F0CF8CF087
:10017300A428CE8DF0A42EFE22C2DE75D909759C6B
:100183000175F90575FAFFD2DE227580D775A402D1
:1001930075F1FA75D40575FDD722AF885388AFEF93
:1001A3005440FEEF54104E428822C0D075A700532E
:1001B300E8DFA2B3B392B3D0D03275E60875A8A234
:1001C30075A71075F2022253F77F75DACA75FBFE25
:1001D30075FC7F227590F575F27F75D58075EDF509
:1001E300221200E27FFF7E0712000380FEE4F5A7E0
:1001F300F5A9E5A930E7FB22E4F5A775E34075E22D
:100203002122E4F5A77597DE7597AD22E4F5A7756E
:1002130089514388102275A720759C0875F49E2286
:10022300E5C0540453C0FB42C02275A71075EF0804
:100233002253F77F75EA012275A73075918022E476
:10024300F5A775D1802275A70053C83F32010A0074
:0102530000AA
:00000001FF
