:020000040000FA
:1000000002017A75A7308F848E852202029B759F2C
:10001000F1E4FF0FBF20FC75A73075991FE4F5A729
:10002000539DFC439D4C439B8022220203CC75B31D
:100030008275B24475BB0D75DF3F75BC1875B98A02
:1000400075A73043B50143A140E4F5A743E88022FA
:01005000228D
:10005300020206E709F608DFFA8046E709F208DF3D
:10006300FA803E88828C83E709F0A3DFFA8032E3CB
:1000730009F608DFFA8078E309F208DFFA8070886E
:10008300828C83E309F0A3DFFA806489828A83E0A8
:10009300A3F608DFFA805889828A83E0A3F208DF97
:1000A300FA804C80D280FA80C680D4806980F28046
:1000B30033801080A680EA809A80A880DA80E2806C
:1000C300CA803389828A83ECFAE493A3C8C582C8C1
:1000D300CCC583CCF0A3C8C582C8CCC583CCDFE92B
:1000E300DEE7800D89828A83E493A3F608DFF9ECC7
:1000F300FAA9F0EDFB2289828A83ECFAE0A3C8C552
:1001030082C8CCC583CCF0A3C8C582C8CCC583CC78
:10011300DFEADEE880DB89828A83E493A3F208DFE7
:10012300F980CC88F0EF60010E4E60C388F0ED24B7
:1001330002B4040050B9F582EB2402B4040050AFBA
:1001430023234582239000A673EF8DF0A4A8F0CF5C
:100153008CF0A428CE8DF0A42EFE22A3F8E0C5F0E7
:1001630025F0F0E582158270021583E0C838F0E8C7
:10017300228A838982E473787FE4F6D8FD7581113E
:100183000201C1020367E493A3F8E493A34003F6D7
:100193008001F208DFF48029E493A3F85407240CC8
:1001A300C8C333C4540F4420C8834004F4568001A9
:1001B30046F6DFE4800B0102040810204080900221
:1001C300BAE47E019360BCA3FF543F30E509541F9A
:1001D300FEE493A360010ECF54C025E060A840B8AD
:1001E300E493A3FAE493A3F8E493A3C8C582C8CA2B
:1001F300C583CAF0A3C8C582C8CAC583CADFE9DEFE
:10020300E780BEC0E0C0F0C083C082C0D075D0001C
:10021300C000C001C002C003C004C005C006C007BF
:1002230075A70053E8DFAFBDAEBE1202D5E4F5BE3D
:10023300F5BDA2B3B392B3D007D006D005D004D096
:1002430003D002D001D000D0D0D082D083D0F0D060
:10025300E03285A71112038812032012035A1203F6
:100263009C12037E12002E12000E1203BE1203D341
:100273001203C51203B01203731203301202E91200
:1002830002FC1203A612039212030F12034D120370
:10029300B71203408511A722C0E0C0D075A7005351
:1002A30088DF438840E58BD3940A4006758B00753D
:1002B3008D00D0D0D0E032010A00540000000100CC
:1002C30000005000000000000A0000002A000000A7
:1002D3000000EF7805CEC313CE13D8F9FF900014B6
:1002E300EEF0A3EFF022E5C8540453C8FB75CBFF2F
:1002F30075CAEC43C80442C82275A710E598540494
:100303005398FB75A3F875A207429822C2DE75D9EC
:1003130009759C0175F90575FAFFD2DE227580D740
:1003230075A40275F1FA75D40575FDD722AF88530C
:1003330088AFEF5440FEEF54104E42882275E60812
:1003430075A8A275A71075F2022253F77F75DACA52
:1003530075FBFE75FC7F227590F575F27F75D58070
:1003630075EDF5221202557FFF7E0712000380FE12
:10037300E4F5A7F5A9E5A930E7FB22E4F5A775E3C2
:100383004075E22122E4F5A77597DE7597AD22E467
:10039300F5A77589514388102275A720759C0875A8
:1003A300F49E22E5C0540453C0FB42C02275A7103B
:1003B30075EF082253F77F75EA012275A73075910F
:1003C3008022E4F5A775D1802275A70053C83F3278
:0403D3007588802287
:00000001FF
