:020000040000FA
:0A00000002014875A71075EF0822F1
:10000B000202E3759FF1E4FF0FBF20FC75A730756B
:0F001B00991FE4F5A7539DFC439D4C439B802206
:10002B000204C175B38275B24375BB0D75DF3F75A5
:10003B00BC1875B98A75A73043B50143A140E4F5E7
:05004B00A743E880223C
:10005300020253C374A09FFF740F9EFE900004F02E
:10006300A3EFF0900009E02FF0900008E03EF0E0ED
:10007300FEA3E0FFD39432EE64809480400B9000A3
:1000830008E4F0A37432F08015C3EF94CEEE6480DD
:10009300947F500A90000874FFF0A374CEF0900090
:1000A3000EE0FEA3E0FF900004E0FCA3E0FDC39F8D
:1000B300FFEC9E900002F0A3EFF090000EECF0A393
:1000C300EDF0900008E0FEA3E0FF7C017D01120348
:1000D30060AA06AB07900004E0FEA3E0FF1C7D03CB
:1000E300120360EF2BFDEE3AFC900003E07F00C4A7
:1000F30054F0FEEF2DFFEC3E900000F0A3EFF090E4
:100103000000E0FEA3E07802CEA2E713CE13D8F8F6
:10011300FF900000EEF0A3EFF0C394FFEE64809431
:100123008F400A900000740FF0A374FFF0C3900097
:1001330000E0648094805004E4F0A3F0900000E0B9
:10014300FEA3E0FF22787FE4F6D8FD75810A020161
:100153008F0204C8E493A3F8E493A34003F6800159
:10016300F208DFF48029E493A3F85407240CC8C3EE
:1001730033C4540F4420C8834004F456800146F628
:10018300DFE4800B010204081020408090038EE41A
:100193007E019360BCA3FF543F30E509541FFEE486
:1001A30093A360010ECF54C025E060A840B8E49348
:1001B300A3FAE493A3F8E493A3C8C582C8CAC5838A
:1001C300CAF0A3C8C582C8CAC583CADFE9DEE7800F
:1001D300BEE4F508E50875F008A4241CF582E434B0
:1001E30000F583E06401705EE50875F008A4241847
:1001F300F582E43400F583E0FEA3E0FFE50875F043
:1002030008A4241AF582E43400F583E475F001129E
:100213000372FCEFB5F02FEEB5042BE50875F0087B
:10022300A4241DF582E43400F583A3E0FAA3E0F9E6
:10023300120388E50875F008A4241AF582E4340053
:10024300F583E4F0A3F00508E508C3940340852291
:10025300C0E0C0F0C083C082C0D075D000C000C071
:1002630001C002C003C004C005C006C00775A700D3
:1002730053E8DFAFBDAEBE1203AFE4F5BEF5BDD0AC
:1002830007D006D005D004D003D002D001D000D0CF
:10029300D0D082D083D0F0D0E03285A70A12048474
:1002A30012041112044B12049812047A12002E1233
:1002B300000E1204B31204CD1204BA120003120486
:1002C300641204211203DA1203ED1204A212048E43
:1002D30012040012043E1204AC120431850AA72250
:1002E300C0E0C0F0C083C082C0D075D000C000C0E1
:1002F30001C002C003C004C005C006C00775A70043
:100303005388DF1201D4D007D006D005D004D00320
:10031300D002D001D000D0D0D082D083D0F0D0E0B2
:10032300325388BFAF8DEF900016F0A3E4F0AF8B8C
:10033300E02FF0900016E03400F0E0FEA3E0FFD3DE
:100343009401EE94004012A2B3B392B3E4F58BF59B
:100353008D90000AEEF0A3EFF043884022EF8DF07A
:10036300A4A8F0CF8CF0A428CE8DF0A42EFE22A357
:10037300F8E0C5F025F0F0E582158270021583E000
:10038300C838F0E8228A838982E47342000E0000B1
:100393005800180001000001FF03240005000001BC
:1003A300FF046F000A000001FF03C600EEC4F85407
:1003B300F0C868FEEFC4540F48FF90000CEEF0A3A2
:1003C300EFF02290000CE0FEA3E0FF120056900035
:1003D30006EEF0A3EFF022E5C8540453C8FB75CB37
:1003E300FF75CAEC43C80442C82275A710E59854A8
:1003F300045398FB75A3F875A207429822C2DE75D1
:10040300D909759C0175F90575FAFFD2DE2275804D
:10041300D775A40275F1FA75D40575FDD722AF8897
:100423005388AFEF5440FEEF54104E42882275E6D6
:100433000875A8A275A71075F2022253F77F75DA23
:10044300CA75FBFE75FC7F227590F575F27F75D535
:100453008075EDF522AD07AC0675A7308C858D84CC
:1004630022E4F5A7F5A9E5A930E7FB22900006E011
:10047300FEA3E0FF020458E4F5A775E34075E2210B
:1004830022E4F5A77597DE7597AD22E4F5A7758984
:10049300514388102275A720759C0875F49E22E5A8
:1004A300C0540453C0FB42C02253F77F75EA0122B4
:1004B30075A73075918022E4F5A775D1802275A7C1
:0E04C3000053C83F3212029D80FE75888022D1
:00000001FF
