:020000040000FA
:0A00000002014875A71075EF0822F1
:10000B000202E3759FF1E4FF0FBF20FC75A730756B
:0F001B00991FE4F5A7539DFC439D4C439B802206
:10002B000204D875B38275B24375BB0D75DF3F758E
:10003B00BC1875B98A75A73043B50143A140E4F5E7
:05004B00A743E880223C
:10005300020253C374A09FFF740F9EFE900004F02E
:10006300A3EFF0900009E02FF0900008E03EF0E0ED
:10007300FEA3E0FFD39432EE64809480400B9000A3
:1000830008E4F0A37432F08015C3EF94CEEE6480DD
:10009300947F500A90000874FFF0A374CEF0900090
:1000A3000EE0FEA3E0FF900004E0FCA3E0FDC39F8D
:1000B300FFEC9E900002F0A3EFF090000EECF0A393
:1000C300EDF0900008E0FEA3E0FF7C017D01120348
:1000D3005EAA06AB07900004E0FEA3E0FF1C7D03CD
:1000E30012035EEF2BFDEE3AFC900003E07F00C4A9
:1000F30054F0FEEF2DFFEC3E900000F0A3EFF090E4
:100103000000E0FEA3E07802CEA2E713CE13D8F8F6
:10011300FF900000EEF0A3EFF0C394FFEE64809431
:100123008F400A900000740FF0A374FFF0C3900097
:1001330000E0648094805004E4F0A3F0900000E0B9
:10014300FEA3E0FF22787FE4F6D8FD75810A020161
:100153008F0204DFE493A3F8E493A34003F6800142
:10016300F208DFF48029E493A3F85407240CC8C3EE
:1001730033C4540F4420C8834004F456800146F628
:10018300DFE4800B010204081020408090038CE41C
:100193007E019360BCA3FF543F30E509541FFEE486
:1001A30093A360010ECF54C025E060A840B8E49348
:1001B300A3FAE493A3F8E493A3C8C582C8CAC5838A
:1001C300CAF0A3C8C582C8CAC583CADFE9DEE7800F
:1001D300BEE4F508E50875F008A4241CF582E434B0
:1001E30000F583E06401705EE50875F008A4241847
:1001F300F582E43400F583E0FEA3E0FFE50875F043
:1002030008A4241AF582E43400F583E475F001129E
:100213000370FCEFB5F02FEEB5042BE50875F0087D
:10022300A4241DF582E43400F583A3E0FAA3E0F9E6
:10023300120386E50875F008A4241AF582E4340055
:10024300F583E4F0A3F00508E508C3940340852291
:10025300C0E0C0F0C083C082C0D075D000C000C071
:1002630001C002C003C004C005C006C00775A700D3
:1002730053E8DFAFBDAEBE1203F5E4F5BEF5BDD066
:1002830007D006D005D004D003D002D001D000D0CF
:10029300D0D082D083D0F0D0E03285A70A1204A553
:1002A30012043212046C1204AF12049B12002E12B9
:1002B300000E1204CA1204E41204D1120003120441
:1002C3008512044212040C12041F1204B912045FB3
:1002D3001203DE1203AD1204C3120452850AA722CD
:1002E300C0E0C0F0C083C082C0D075D000C000C0E1
:1002F30001C002C003C004C005C006C00775A70043
:100303005388DF1201D4D007D006D005D004D00320
:10031300D002D001D000D0D0D082D083D0F0D0E0B2
:1003230032E4F5A75388BFAF8DEF900016F0A3E436
:10033300F0AF8BE02FF0900016E03400F0E0FEA366
:10034300E0FFD3940AEE9400400DE4F58BF58D9015
:10035300000AEEF0A3EFF043884022EF8DF0A4A84B
:10036300F0CF8CF0A428CE8DF0A42EFE22A3F8E0CB
:10037300C5F025F0F0E582158270021583E0C838D8
:10038300F0E8228A838982E47342000E0000580059
:10039300180027000001FF03240002000001FF04EE
:1003A300900005000001FF03C60053F77F75DA4A8A
:1003B30075FBFF75FC0343F78075FBFF75FC035367
:1003C300F77F22D2B390000CE0FEA3E0FF120056A9
:1003D300900006EEF0A3EFF0C2B322C2DE75D90897
:1003E300759C0175F9E875FA0353F7F843F703D2DF
:1003F300DE22EEC4F854F0C868FEEFC4540F48FF81
:1004030090000CEEF0A3EFF022E5C8540453C8FBB0
:1004130075CBFF75CAEC43C80442C82275A710E523
:100423009854045398FB75A3F875A2074298227554
:1004330080D775A40275F1FA75D40575FDD722AF7F
:10044300885388AFEF5440FEEF54104E4288227514
:10045300E60875A8A275A71075F20222E4F5A77540
:100463008E01758951438810227590F575F27F7559
:10047300D58075EDF522AD07AC0675A7308C858D5B
:100483008422E4F5A7F5A9E5A930E7FB229000064D
:10049300E0FEA3E0FF020479E4F5A775E34075E20B
:1004A3002122E4F5A77597DE7597AD2275A7207510
:1004B3009C0875F49E22E5C0540453C0FB42C0223D
:1004C30053F77F75EA012275A73075918022E4F511
:1004D300A775D1802275A70053C83F3212029D80B1
:0504E300FE7588802277
:00000001FF
