:020000040000FA
:1000000002005675A7308F848E852202002E759FC0
:10001000F1E4FF0FBF20FC75A73075991FE4F5A729
:10002000539DFC439D4C439B802232020214C0E04E
:10003000C0D075A7005388DF438840E58BD3940A6E
:100040004006758B00758D00D0D0D0E03275888069
:01005000228D
:1000530002002A787FE4F6D8FD75811002009D0224
:1000630001CBE493A3F8E493A34003F68001F208E1
:10007300DFF48029E493A3F85407240CC8C333C4E2
:10008300540F4420C8834004F456800146F6DFE44D
:10009300800B010204081020408090023AE47E01A4
:1000A3009360BCA3FF543F30E509541FFEE493A3C0
:1000B30060010ECF54C025E060A840B8E493A3FAD2
:1000C300E493A3F8E493A3C8C582C8CAC583CAF05E
:1000D300A3C8C582C8CAC583CADFE9DEE780BE8577
:1000E300A7101201EC1201841201BE1202001201C8
:1000F300E212014E12000E12022C12004D120233B4
:1001030012021E1201D712019412012812013B128E
:10011300020A1201F61201731201B1120225120131
:10012300A48510A722E5C8540453C8FB75CBFF75FB
:10013300CAEC43C80442C82275A710E59854045377
:1001430098FB75A3F875A20742982275B38175B21F
:100153004475BB0D75DF1F75BC1875B98422EF8D0F
:10016300F0A4A8F0CF8CF0A428CE8DF0A42EFE220C
:10017300C2DE75D909759C0175F90575FAFFD2DEE2
:10018300227580D775A40275F1FA75D40575FDD76C
:1001930022AF885388AFEF5440FEEF54104E42888D
:1001A3002275E60875A8A275A71075F2022253F707
:1001B3007F75DACA75FBFE75FC7F227590F575F2C3
:1001C3007F75D58075EDF5221200E27FFF7E071261
:1001D300000380FEE4F5A7F5A9E5A930E7FB22E4D7
:1001E300F5A775E34075E22122E4F5A77597DE755F
:1001F30097AD22E4F5A77589514388102275A7208E
:10020300759C0875F49E22E5C0540453C0FB42C09C
:1002130022C0D0A2B3B392B3D0D03275A71075EF7A
:10022300082253F77F75EA012275A7307591802262
:0B023300E4F5A775D18022010A00004D
:00000001FF
