:020000040000FA
:1000000002041375A71075EF0822220205B1759F2F
:10001000F1E4FF0FBF20FC75A73075991FE4F5A729
:0A002000539DFC439D0C439B80227E
:10002B0002077C75B30275BB1175DF1F75BC1875A4
:10003B00B98A75A73043B50143A140E4F5A743E85E
:07004B00802212056880FE0F
:1000530002051EC374D09F900007F074079E9000A2
:1000630006F09000E2E0FB75F00AA424F3F582E5C4
:10007300F03400F583EEF0A3EFF0900006E0FEA36A
:10008300E0FF90000BE02FF090000AE03EF09000BC
:10009300DEE0FCA3E0FDC3EF9DFFEE9C900004F0C7
:1000A300A3EFF0A3A3E0FF9000DEEEF0A3EFF07C5C
:1000B300037DE81201C19000E5EEF0A3EFF090009C
:1000C300E5E0FEA3E0FF75F00AEBA424EDF582E57D
:1000D300F03400F583EEF0A3EFF090000AE0FEA306
:1000E300E07802CEA2E713CE13D8F8FF9000E3EE38
:1000F300F0A3EFF09000E3E0FEA3E0FF9000E2E066
:10010300FB75F00AA424EFF582E5F03400F583EEE5
:10011300F0A3EFF0900004E0FEA3E0FF7C037DE892
:100123001201C19000E0EEF0A3EFF09000E0E0FEDA
:10013300A3E0FF75F00AEBA424F1F582E5F03400A7
:10014300F583EEF0A3EFF09000E3E0FEA3E0FF9071
:1001530000E6E02FFF9000E5E03EFE9000E1E02F97
:10016300FF9000E0E03EFE3395E0FDFC90000012BE
:100173000269E47FFF7E0FFDFC900000E0F8A3E03E
:10018300F9A3E0FAA3E0FBC312020D400A900000BA
:1001930012027500000FFF900000E0FCA3E0FDA336
:1001A300E0FEA3E0FFEC33500A900000120275005A
:1001B300000000900000A3A3E0FEA3E0FF22C2D54D
:1001C300EC30E709B2D5E4C39DFDE49CFCEE30E7D7
:1001D30015B2D5E4C39FFFE49EFE1202ACC3E49DB7
:1001E300FDE49CFC80031202AC30D507C3E49FFFFF
:1001F300E49EFE22A3F8E0C5F025F0F0E582158227
:1002030070021583E0C838F0E822EB9FF5F0EA9E10
:1002130042F0E99D42F0EC6480C864809845F02286
:10022300EB9FF5F0EA9E42F0E99D42F0E89C45F031
:10023300227401FF3395E0FEFDFCA3A3A3E0CF2FBF
:10024300F0E582158270021583E0CE3EF0E582155B
:100253008270021583E0CD3DF0E5821582700215B0
:1002630083E0CC3CF022ECF0A3EDF0A3EEF0A3EF9F
:10027300F022A8828583F0D083D08212028C1202EE
:100283008C12028C12028CE473E493A3C583C5F031
:10029300C583C8C582C8F0A3C583C5F0C583C8C5D7
:1002A30082C8228A838982E473BC000BBE0029EFD3
:1002B3008DF084FFADF022E4CCF875F008EF2FFF4A
:1002C300EE33FEEC33FCEE9DEC984005FCEE9DFE18
:1002D3000FD5F0E9E4CEFD22EDF8F5F0EE8420D25F
:1002E3001CFEADF075F008EF2FFFED33FD400798CE
:1002F3005006D5F0F222C398FD0FD5F0EA22420052
:10030300DE00004100E20042001400004400E90066
:1003130000000060C800160000000000000000009C
:1003230000000000000000000000000000000000CA
:1003330000000000000000000000000000000000BA
:1003430000000000000000000000000000000000AA
:10035300000000000000000000000000000000009A
:10036300000000000000000000000000000000008A
:10037300000000000000000000000000000000007A
:10038300000000000000000000000000000000006A
:10039300000000000000000000000000000000005A
:1003A300000000000000000000000000000000004A
:1003B300000000000000000000000000000000003A
:1003C300000000000000000000000000000000002A
:1003D30000000000000000000000000000000042D8
:1003E300000C000144001000000000602004D50050
:1003F30027000000FF05F20002000001FF000A00D1
:1004030002000001FF068C0002000001FF07350017
:10041300787FE4F6D8FD75810A02045A02004DE4A0
:1004230093A3F8E493A34003F68001F208DFF4807A
:1004330029E493A3F85407240CC8C333C4540F44CA
:1004430020C8834004F456800146F6DFE4800B01A4
:1004530002040810204080900301E47E019360BCF5
:10046300A3FF543F30E509541FFEE493A360010E3C
:10047300CF54C025E060A840B8E493A3FAE493A363
:10048300F8E493A3C8C582C8CAC583CAF0A3C8C584
:1004930082C8CAC583CADFE9DEE780BEE4F508E5A2
:1004A3000875F008A424D9F582E43404F583E064E4
:1004B30001705EE50875F008A424D5F582E43404E0
:1004C300F583E0FEA3E0FFE50875F008A424D7F563
:1004D30082E43404F583E475F0011201F7FCEFB50F
:1004E300F02FEEB5042BE50875F008A424DAF582A5
:1004F300E43404F583A3E0FAA3E0F91202A6E508C5
:1005030075F008A424D7F582E43404F583E4F0A35A
:10051300F00508E508C39404408522C0E0C0F0C09C
:1005230083C082C0D075D000C000C001C002C00328
:10053300C004C005C006C00775A70053E8DFAFBD00
:10054300AEBE12075EE4F5BEF5BDD007D006D005FA
:10055300D004D003D002D001D000D0D0D082D08339
:10056300D0F0D0E03285A70A1207401206C6120760
:100573001D12078312074A1206F612002E12000EEE
:1005830012075412076E12077512000312072A127C
:1005930006D61206A01206B31206E61207101206BA
:1005A3007512065C120767120703850AA722C0E0CB
:1005B300C0F0C083C082C0D075D000C000C001C0ED
:1005C30002C003C004C005C006C00775A700538856
:1005D300DF12049FD007D006D005D004D003D00289
:1005E300D001D000D0D0D082D083D0F0D0E032E49C
:1005F300F5A75388BFAF8DEF9000E7F0A3E4F0AF0A
:100603008BE02FF09000E7E03400F0E0FEA3E0FF82
:10061300D3940AEE9400400DE4F58BF58D90000E13
:10062300EEF0A3EFF043884022AD07AC0675A73088
:100633008C858D849000E2E0FF04F075F00AEFA44E
:1006430024F5F582E5F03400F583ECF0A3EDF090AA
:1006530000E2E0B46402E4F02253F77F75DA4A75EE
:10066300FBFF75FC0343F78075FBFF75FC0353F732
:100673007F22C2DE75D908759C8175F9E875FA0386
:1006830053F7F843F703D2DE22900014E0FEA3E011
:10069300FF120056900008EEF0A3EFF022E5C854D5
:1006A3000453C8FB75CBFC75CA0343C80442C82274
:1006B30075A710E59854045398FB75A3F875A20722
:1006C3004298227580CF75A40A75F1FA75D4057521
:1006D300FDC722AF885388AFEF5440FEEF54104E4E
:1006E300428822E5C0540453C0FB75D3FC75D20382
:1006F30042C022E4F5A775E34075E10875E22122C3
:1007030075E60875A8A275A71075F20222E4F5A78D
:10071300758E01758951438810227590F475F27FA7
:1007230075D58075EDF522E4F5A7F5A9E5A930E7C0
:10073300FB22900008E0FEA3E0FF02062CE4F5A7ED
:100743007597DE7597AD2275A720759C0875F49E85
:100753002275A730759180E4F59222900014EEF093
:10076300A3EFF02253F77F75EA012275888075A203
:100773001022E4F5A775D1402275A70053C83F3274
:0407830075A6202215
:00000001FF
